:020000040800F2
:10000000F030002051190008C9020008CB02000896
:10001000CF020008D3020008D70200080000000049
:10002000000000000000000000000000DB020008EB
:10003000DD02000800000000DF020008E102000805
:100040006B1900086B1900086B1900086B19000880
:100050006B1900086B190008B91400086B19000827
:100060006B1900086B1900086B1900086B19000860
:100070006B1900086B1900086B1900086B19000850
:100080006B1900086B1900086B1900086B19000840
:100090006B1900086B1900086B1900086B19000830
:1000A0006B1900086B1900086B1900086B19000820
:1000B0006B1900086B1900086B1900086B19000810
:1000C0006B1900086B1900086B1900086B19000800
:1000D0006B190008C71800086B1900086B19000895
:1000E000F31400086B1900086B1900086B1900085D
:1000F0006B1900086B1900086B1900086B190008D0
:100100006B1900086B1900086B1900086B190008BF
:100110006B1900086B1900086B1900086B190008AF
:100120006B1900086B1900086B1900086B1900089F
:1001300000F002F800F06BF80AA090E8000C82448E
:100140008344AAF10107DA4501D100F060F8AFF26B
:10015000090EBAE80F0013F0010F18BFFB1A43F0A5
:1001600001031847E8590000085A000010F8013B45
:100170000A4413F0030408BF10F8014B1D1108BF17
:1001800010F8015B641E05D010F8016B641E01F8C5
:10019000016BF9D1002D15D010F8014B03F00C03C1
:1001A0000C2BA1EB04040ABF10F8013BA4EB831451
:1001B000A4EB032405F1010314F8016B5B1E01F8A5
:1001C000016BF9D5914238BF10F8013BD1D370478C
:1001D0000023002400250026103A28BF78C1FBD850
:1001E000520728BF30C148BF0B607047662905F031
:1001F000A083002070471FB502F0EEFF040000202E
:10020000002104F0E3FAE0601FBD10B510BD03F05B
:1002100003F91146FFF7EFFF00F008F803F021F9AA
:1002200003B4FFF7F2FF03BC01F0F2FA01F086FA23
:100230004FF4A06002F030F94FF4E13001F0F7FA2A
:1002400000F042F901F0EFF800F097FA642001F0B5
:10025000B2FA00F075FB642001F0ADFA4FF47A7049
:1002600001F0A9FA4FF47A7001F0A5FA4FF47A7010
:1002700001F0A1FA4FF47A7001F09DFA4FF47A7010
:1002800001F099FA09A002F0E3FC0EE00D480068C5
:1002900020B100F055FB00200A49086000F096FBF1
:1002A00000F0B8FB322001F086FAEFE72A34353847
:1002B00037333123343332312374657374322A0D6A
:1002C0000A00000000080020704700BFFEE700BFE2
:1002D000FEE700BFFEE700BFFEE7704770477047CC
:1002E000704700007248006840F0010070490860E3
:1002F0000846406848600846406840F4001048607E
:100300000846406848600846006840F08070086011
:1003100000BF6748006800F000700028F9D064480A
:10032000406820F00300624948600846406840F099
:100330000200486000BF5E48406800F00C000828DA
:10034000F9D1704710B5002100200022584B5B689E
:1003500003F00C0121B1042906D0082928D107E0B7
:10036000544B554C236027E0524B534C236023E001
:100370004F4B5B6803F470104D4B5B6803F48032A5
:10038000022303EB904022B94C4B43434A4C236079
:100390000DE0474B5B6803F4003323B1474B434305
:1003A000454C236003E0434B4343434C236003E04D
:1003B000404B414C236000BF00BF3D4B5B68C3F323
:1003C00003133F4CE15C3C4B1B68CB403A4C236031
:1003D00010BD0CB50020019000903548006840F435
:1003E00080303349086000BF3148006800F40030B5
:1003F00000900198401C0190009818B90198B0F540
:10040000A06FF1D12A48006800F4003010B101203B
:10041000009001E0002000900098012843D1294875
:10042000006840F01000274908600846006820F086
:10043000030008600846006840F0020008601C489D
:1004400040681B4948600846406848600846406864
:1004500040F4806048600846406820F47C104860A2
:100460000846406840F4E81048600846006840F0DC
:100470008070086000BF0E48006800F0007000281F
:10048000F9D00B48406820F003000949486008464D
:10049000406840F00200486000BF0548406800F036
:1004A0000C000828F9D10CBD10B5FFF792FF10BD64
:1004B0000010024000127A001008002000093D00E0
:1004C000140800200020024008B501217C2001F022
:1004D0007BFD48F69E10ADF8000010208DF803005B
:1004E00003208DF802006946324801F0B1FA1E215E
:1004F000304801F05AFB48F680112E4801F057FBB6
:1005000040F2FF30ADF8000010208DF8030003200A
:100510008DF802006946284801F09AFA40F2FF314E
:10052000254801F044FB41F24F20ADF800001020B7
:100530008DF8030003208DF8020069461F4801F082
:1005400087FA41F24F211D4801F031FB4FF4526010
:10055000ADF8000010208DF8030003208DF8020094
:100560006946164801F074FA41F24F61134801F0F0
:100570001CFB9020ADF8000004208DF803006946B4
:100580000E4801F065FA4FF6FF70ADF80000042048
:100590008DF8030069460A4801F05AFA4FF6FF70D9
:1005A000ADF8000004208DF803006946054801F00D
:1005B0004FFA08BD00080140000C01400010014046
:1005C00000140140001801400A3000BF011EA0F1D4
:1005D0000100FBD1704710B504216D4801F0E7FA26
:1005E0004FF4FA7001F0C3F80421694801F0DDFA14
:1005F00010BD10B54FF40061664801F0D8FA4FF411
:10060000FA7001F0B4F84FF40061624801F0CDFADD
:1006100010BD10B501215E4801F0C9FA4FF4007118
:100620005D4801F0C4FA012001F0C5F801215848E5
:1006300001F0BBFA4FF40071574801F0B6FA10BD53
:1006400010B50221524801F0B2FA0221504801F0DF
:10065000ACFA012001F0AFF802214D4801F0A7FAF1
:1006600010BD10B54FF480714A4801F0A0FA4FF464
:100670008071484801F099FA012001F09CF84FF48C
:100680008071444801F093FA10BD08B543480068F2
:1006900080B20090009800F4004010B14FF6FF7156
:1006A00000E00021009861F31F4008BD08B53C48F8
:1006B000006880B20090009800F4004010B14FF63E
:1006C000FF7100E00021009861F31F4008BD70B584
:1006D00005462021304801F06AFAFFF77CFF00BF91
:1006E00010212D4801F047FA0128F9D0002410E02C
:1006F0000121274801F05BFA0120FFF765FFFFF7B2
:10070000C4FF45F824000121214801F04EFA601C85
:10071000C4B2082CECDB20211F4801F046FA01206E
:10072000FFF752FF4FF480711B4801F040FAFFF7CA
:1007300060FF00BF8021184801F01DFA0128F9D0A0
:10074000082412E04FF40071134801F030FA012040
:10075000FFF73AFFFFF7AAFF45F824004FF40071B6
:100760000D4801F022FA601CC4B2102CEADB4FF4F1
:100770008071094801F019FA70BD10B5FFF760FFEC
:10078000FFF76FFFFFF727FFFFF733FF10BD0000F4
:10079000000C014000080140001001400818014011
:1007A0000814014010B50446102C5CD2DFE804F0B8
:1007B000080E14191E23282D33383D42474C51563C
:1007C0004FF400715B4801F0F2F94DE04FF4807195
:1007D000584801F0ECF947E08021564801F0E7F96C
:1007E00042E04021534801F0E2F93DE02021514828
:1007F00001F0DDF938E010214E4801F0D8F933E07E
:1008000008214C4801F0D3F92EE04FF480514A48BA
:1008100001F0CDF928E01021484801F0C8F923E0A3
:100820000821464801F0C3F91EE00421434801F0C5
:10083000BEF919E00221414801F0B9F914E008219C
:100840003D4801F0B4F90FE004213B4801F0AFF955
:100850000AE00221384801F0AAF905E001213648F2
:1008600001F0A5F900E000BF00BF10BD10B50446BF
:10087000102C5CD2DFE804F0080E14191E23282D7A
:1008800033383D42474C51564FF40071294801F02E
:100890008CF94DE04FF48071264801F086F947E06D
:1008A0008021244801F081F942E04021214801F0F3
:1008B0007CF93DE020211F4801F077F938E0102154
:1008C0001C4801F072F933E008211A4801F06DF973
:1008D0002EE04FF48051184801F067F928E010210C
:1008E000164801F062F923E00821144801F05DF98F
:1008F0001EE00421114801F058F919E002210F48C7
:1009000001F053F914E008210B4801F04EF90FE013
:100910000421094801F049F90AE00221064801F0E2
:1009200044F905E00121044801F03FF900E000BF6F
:1009300000BF10BD000C0140001001400008014044
:1009400010B50020F849086019E00220FFF73CFECE
:10095000F5480068FFF78AFF0220FFF735FEF249ED
:100960000968F24A02EB8110FFF7B1FEEE48006819
:10097000FFF718FFEC480068401CEB490860EA48A4
:1009800000681028E1DB0020E749086019E0022038
:10099000FFF71AFEE4480068FFF768FF0220FFF740
:1009A00013FEE1490968E14A02EB8110FFF78FFE6F
:1009B000DD480068FFF7F6FEDB480068401CDA49B6
:1009C0000860D94800681028E1DB10BD10B5002090
:1009D000D549086019E00220FFF7F6FDD24800680B
:1009E000FFF744FF0220FFF7EFFDCF490968D04A27
:1009F00002EB8110FFF76BFECB480068FFF7D2FED9
:100A0000C9480068401CC8490860C74800681028E9
:100A1000E1DB10BD2DE9FF5F0020C3490860F3E36F
:100A2000C349C14A126851F8220004F0EBFD0546A3
:100A3000C04904F025FD0446BF4904F02FFEBF491C
:100A4000B94A126841F82200B849B74A126851F809
:100A5000220004F0D7FD0746B549B34A126851F8A1
:100A6000220004F0CFFD8046394604F0EDFE064634
:100A7000B04904F005FD0546AF4904F00FFE0446F9
:100A8000AF4904F00BFEAF49A74A126841F82200B3
:100A9000AA49A54A126851F8220004F057FC824680
:100AA000A94AAA4B04F068FB064632460B46A84802
:100AB000A84903F08FFF8046A54AA74B04F036F9FA
:100AC000044603F099FEA549974A126841F82200AE
:100AD000954A126851F8220004F038FC0646324666
:100AE0000B469B489E4903F075FF044603F084FEC5
:100AF0009C4908608D498C4A126851F8220004F024
:100B000081FD07468B4904F0BBFC06468A4904F088
:100B1000C5FD05469148844A126850F822102846BF
:100B200004F088FE0446904904F0B8FD8F497E4ADF
:100B3000126841F822007C48006838B17A480068A1
:100B4000401E804951F820008949086076480068B5
:100B5000022801D1012000E000207349096803291F
:100B600001D1012100E0002108436F4909680429EF
:100B700001D1012100E0002108436B4909680529E2
:100B800001D1012100E000210843674909681129CA
:100B900001D1012100E000210843634909681229BD
:100BA00001D1012100E0002108435F4909681329B0
:100BB00001D1012100E0002108435B4909681429A3
:100BC00001D1012100E00021084357490968152996
:100BD00001D1012100E00021084353490968162989
:100BE00001D1012100E0002108434F490968202973
:100BF00001D1012100E0002108434B490968212966
:100C000001D1012100E00021084347490968222958
:100C100001D1012100E0002108434349096823294B
:100C200001D1012100E0002108433F49096824293E
:100C300001D1012100E0002108433B490968252931
:100C400001D1012100E00021084337490968262924
:100C500001D1012100E00021084333490968272917
:100C600001D1012100E0002108432F490968302902
:100C700001D1012100E0002108432B4909683129F5
:100C800001D1012100E000210843274909683229E8
:100C900001D1012100E000210843234909683329DB
:100CA00001D1012100E0002108431F4909683429CE
:100CB00001D1012100E0002108431B4909683529C1
:100CC00001D1012100E000210843174909683629B4
:100CD00001D1012100E000210843134909683729A7
:100CE00001D1012100E0002108430F49096838299A
:100CF00001D1012100E0002108430B490968402986
:100D000001D1012100E00021084307490968412978
:100D100001D1012100E0002108430349096842296B
:100D200028D1012127E000003C0800200C150020FC
:100D30000C19002000FEFF460000A0400C0D002012
:100D40000000C8430C1100206DE7FBA9F1D2F93F68
:100D5000CDCCCCCCCC2C6440CCCCF43F0C090020C6
:100D6000CCCCEC3F440800200000C8420C1D002001
:100D70006008002000210843FA490968432901D18D
:100D8000012100E000210843F6490968442901D106
:100D9000012100E000210843F2490968452901D1F9
:100DA000012100E000210843EE490968462901D1EC
:100DB000012100E000210843EA490968472901D1DF
:100DC000012100E000210843E6490968482901D1D2
:100DD000012100E000210843E2490968502901D1BE
:100DE000012100E000210843DE490968512901D1B1
:100DF000012100E000210843DA490968522901D1A4
:100E0000012100E000210843D6490968532901D196
:100E1000012100E000210843D2490968542901D189
:100E2000012100E000210843CE490968552901D17C
:100E3000012100E000210843CA490968562901D16F
:100E4000012100E000210843C6490968572901D162
:100E5000012100E000210843C2490968582901D155
:100E6000012100E000210843BE490968612901D140
:100E7000012100E000210843BA490968622901D133
:100E8000012100E000210843B6490968632901D126
:100E9000012100E000210843B2490968642901D119
:100EA000012100E000210843AE490968652901D10C
:100EB000012100E000210843AA490968662901D1FF
:100EC000012100E000210843A6490968672901D1F2
:100ED000012100E000210843A2490968682901D1E5
:100EE000012100E0002108439E490968712901D1D0
:100EF000012100E0002108439A490968722901D1C3
:100F0000012100E00021084396490968732901D1B5
:100F1000012100E00021084392490968742901D1A8
:100F2000012100E0002108438E490968752901D19B
:100F3000012100E0002108438A490968762901D18E
:100F4000012100E00021084386490968772901D181
:100F5000012100E00021084382490968822901D16A
:100F6000012100E0002108437E490968832901D15D
:100F7000012100E0002108437A490968842901D150
:100F8000012100E00021084376490968852901D143
:100F9000012100E00021084372490968862901D136
:100FA000012100E0002108436E490968872901D129
:100FB000012100E0002108436A490968922901D112
:100FC000012100E00021084366490968932901D105
:100FD000012100E00021084362490968942901D1F8
:100FE000012100E0002108435E490968952901D1EB
:100FF000012100E0002108435A490968962901D1DE
:10100000012100E00021084356490968A22901D1C5
:10101000012100E00021084352490968A32901D1B8
:10102000012100E0002108434E490968A42901D1AB
:10103000012100E0002108434A490968A52901D19E
:10104000012100E00021084346490968A62901D191
:10105000012100E00021084342490968B12901D17A
:10106000012100E0002108433E490968B22901D16D
:10107000012100E0002108433A490968B32901D160
:10108000012100E00021084336490968B42901D153
:10109000012100E00021084332490968B52901D146
:1010A000012100E0002108432E490968B62901D139
:1010B000012100E0002108432A490968C12901D122
:1010C000012100E00021084326490968C22901D115
:1010D000012100E00021084322490968C32901D108
:1010E000012100E0002108431E490968C42901D1FB
:1010F000012100E0002108431A490968C52901D1EE
:10110000012100E00021084316490968C62901D1E0
:10111000012100E00021084312490968D12901D1C9
:10112000012100E0002108430E490968D22901D1BC
:10113000012100E0002108430A490968D32901D1AF
:10114000012100E00021084306490968D42901D1A2
:10115000012100E00021084302490968D52903D193
:10116000012102E03C080020002108439149096860
:10117000D62901D1012100E0002108438D490968E9
:10118000E12901D1012100E00021084389490968D2
:10119000E22901D1012100E00021084385490968C5
:1011A000E32901D1012100E00021084381490968B8
:1011B000E42901D1012100E0002108437D490968AB
:1011C000E52901D1012100E000210843794909689E
:1011D000E62901D1012100E0002108437549096891
:1011E000F22901D1012100E0002108437149096879
:1011F000F32901D1012100E0002108436D4909686C
:10120000F42902D1012101E037E0002108436949B6
:101210000968F52901D1012100E00021084338B314
:101220006548644A126850F822106448006804F067
:10123000B9F8624908605F480068022807D15E4833
:101240005C49096850F821005D49086010E05A487F
:10125000584A126850F822105948006804F0EAF918
:1012600006D255485349096850F82100544908608E
:1012700050480068401C4F4908604E480068FF28ED
:101280007FF7CEAB4F494D48006804F0F9F84E495E
:1012900008600846006804F059F804460D464748BF
:1012A000006804F053F806460F464548006804F00D
:1012B0004DF8804642460B4644A0CDE90067CDE993
:1012C000024501F0C5FCBDE8FF9F10B54FF48061F9
:1012D000434800F06CFC0A2000F049FA4FF48061AA
:1012E0003F4800F062FC10BD10B54FF400413D488E
:1012F00000F05DFC0A2000F05EFA4FF4004139482E
:1013000000F053FC0A2000F056FA4FF40041354833
:1013100000F04DFC0A2000F04EFA4FF40041314835
:1013200000F043FC0A2000F046FA4FF400412D483B
:1013300000F03DFC0A2000F03EFA4FF4004129483D
:1013400000F033FC0A2000F036FA4FF40041254843
:1013500000F02DFC10BD10B54FF40061204800F0E6
:1013600026FC0A2000F027FA4FF400611C4800F028
:101370001CFC0A2000F01FFA4FF40061184800F02E
:1013800016FC0A2000F017FA4FF40061144800F030
:101390000CFC0A2000F00FFA4FF40061104800F036
:1013A00006FC0A2000F007FA4FF400610C4800F038
:1013B000FCFB10BD3C0800200C1100205808002048
:1013C000540800200000D0425C080020252E33661F
:1013D0002C252E33662C252E33660D0A00000000C6
:1013E000001001400008014008B501210C2000F068
:1013F000EBFD01216F4800F0FCFB0120ADF800007F
:1014000048208DF8030069466B4800F021FB4FF43B
:101410000060ADF8000048208DF803006946674879
:1014200000F016FB08BD0EB50121084600F0CCFD0A
:10143000FFF7DAFF0021084600F020FC0B21012015
:1014400000F01CFC0120019000208DF808000C2009
:101450008DF8090001208DF80A0001A801F098F824
:1014600006208DF8000002208DF801008DF80200A2
:1014700001208DF80300684601F013F84FF4006076
:10148000019000208DF808000C208DF80900012043
:101490008DF80A0001A801F07BF828208DF80000E3
:1014A00002208DF801008DF8020001208DF8030064
:1014B000684600F0F6FF0EBD10B50A2000F07BF97B
:1014C0003F48006808B9012000E000203D49096854
:1014D000012900D100E00021084018B1012038495D
:1014E000086002E0012037490860012001F0C7F8D8
:1014F00010BD2DE9FC5F0A2000F05DF900203249A3
:1015000008603248006832490860002031490860AC
:1015100029E031492F4A126851F8220003F016FFE2
:1015200004460D462A48006803F010FF804600225A
:101530002A4B02F039FC064622462B4603F0F6FB06
:101540008246274A274B03F045FACDE9000103F014
:1015500053F925491F4A126841F822001D480068C6
:10156000401C1C4908601B4800681728D1DB00207C
:101570001E4908600EE01C481C49096850F821000B
:101580001B491A4A126841F8220018480068401C9A
:1015900016490860154800681728ECDB5C221449DE
:1015A000144800F050F84FF4006001F068F8BDE80E
:1015B000FC9F00000002300000080140000C0140C8
:1015C0000008002004080020500800200C0800201B
:1015D0007008002088080020B00800200000F83FB4
:1015E000CDCCCCCCCCCCDC3F0C2100208C08002016
:1015F00068210020000002080146088870472DE994
:10160000F04105460E461746002407E036F8141050
:10161000284601F0A4F9AD1C601C84B2BC42F5DB85
:10162000BDE8F08130B503460C461546002207E0C0
:101630001846FFF7E1FF24F812009B1C501C82B2F1
:10164000AA42F5DB30BD2DE9F05F80468A46174699
:10165000B8F1006F02D33748804501D3BDE8F09F51
:1016600001F035F8A8F1006B4FEADB25CBF349090F
:10167000C9F58064A74200DC3C464DE04FF00061B4
:1016800001EBC5204A142C49FFF7CCFF00260BE0E4
:1016900009EB0600284931F810004FF6FF71884227
:1016A00000D003E0701C86B2A642F1DB00BFA64268
:1016B0001BDA4FF0006101EBC52001F04DF8002668
:1016C00008E03AF8160006EB09011B4A22F811005F
:1016D000701C86B2A642F4DB4FF0006101EBC5201E
:1016E0004A141549FFF78BFF04E022465146404655
:1016F000FFF785FFA74200D10FE06D1C4FF00009F6
:101700000AEB440AA044381B87B2B7F5806F02DDAC
:101710004FF4806400E03C46B0E700BF00F0E3FF18
:1017200000BF9BE713B50446012201A92046FFF73D
:101730008AFF1CBD00000408C421002010B56FF012
:10174000040000F0F8FE2E4800682E49B0FBF1F0CE
:101750002D4908700846007800EB4001C1EBC0102D
:101760004FF6FF7101EAC0002849088010BD01460C
:10177000254A12784A434FF0E0235A6100229A61C9
:101780001A46126942F001021A6100BF4FF0E022CE
:10179000106900F001021AB100F48032002AF5D07D
:1017A0004FF0E022126922F001024FF0E0231A61AB
:1017B00000229A6170470146144A12884A434FF04A
:1017C000E0235A6100229A611A46126942F001022E
:1017D0001A6100BF4FF0E022106900F001021AB157
:1017E00000F48032002AF5D04FF0E022126922F096
:1017F00001024FF0E0231A6100229A617047000055
:101800001008002000127A009008002092080020A2
:10181000014600BF704700BF494A128802F04002EB
:10182000002AF9D0C2B2464B1B1D1A80704710B572
:1018300086B00446012144F2040000F0C5FB4FF4D9
:101840000070ADF8140003208DF8160018208DF8F4
:10185000170005A93B4800F0FBF84FF48060ADF895
:10186000140004208DF8170005A9364800F0F0F8A0
:1018700025208DF8000003208DF801008DF802006E
:1018800001208DF80300684600F00BFE0194002053
:10189000ADF80800ADF80A00ADF80C00ADF8100086
:1018A0000C20ADF80E0001A9254800F034FC0122FF
:1018B00040F22551224800F0C6FC0121204800F0EA
:1018C000B6FC06B010BD10B540F225511C4800F022
:1018D0009FFD10B31A4800F01BFDC4B21A480088DF
:1018E00000F40040C8B91848008800F4804060B196
:1018F0000A2C03D000201449088020E012480088F8
:1019000040F400401049088019E00D2C06D10E4823
:10191000008840F480400C49088010E00A480088A4
:10192000C0F30D0009490C5407480088401C0649C3
:10193000088008460088C72801DD0020088010BD07
:10194000003801400008014098080020C429002008
:101950000948804709480047FEE7FEE7FEE7FEE743
:10196000FEE7FEE7FEE7FEE7FEE7FEE7044805497F
:10197000054A064B70470000E502000831010008E7
:10198000F02A0020F0300020F02C0020F02C002065
:1019900010B50446CC48844208D10121042000F04F
:1019A0002DFB0021042000F029FB46E0C7488442BB
:1019B00008D10121082000F021FB0021082000F0BF
:1019C0001DFB3AE0C248844208D10121102000F0FA
:1019D00015FB0021102000F011FB2EE0BD488442D1
:1019E00008D10121202000F009FB0021202000F077
:1019F00005FB22E0B848844208D10121402000F0D4
:101A0000FDFA0021402000F0F9FA16E0B3488442C4
:101A100008D10121802000F0F1FA0021802000F09F
:101A2000EDFA0AE0AE48844207D10121801500F0AA
:101A3000E5FA0021A01500F0E1FA10BD10B5012172
:101A4000084600F0DBFA0021012000F0D7FA10BDB3
:101A50002DE9F04102460025002600200023002445
:101A6000002791F803C00CF00F0591F803C00CF0AB
:101A7000100CBCF1000F03D091F802C04CEA050530
:101A800091F800C0BCF1000F31D0146800202BE0A9
:101A90004FF0010C0CFA00F3B1F800C00CEA030699
:101AA0009E4220D183004FF00F0C0CFA03F7BC4389
:101AB00005FA03FC4CEA040491F803C0BCF1280FBA
:101AC00006D14FF0010C0CFA00FCC2F814C00AE079
:101AD00091F803C0BCF1480F05D14FF0010C0CFA8E
:101AE00000FCC2F810C0401C0828D1D31460B1F823
:101AF00000C0BCF1FF0F34DD546800202EE000F17F
:101B0000080C4FF0010808FA0CF3B1F800C00CEA19
:101B100003069E4221D183004FF00F0C0CFA03F70D
:101B2000BC4305FA03FC4CEA040491F803C0BCF181
:101B3000280F05D100F1080C08FA0CF8C2F814803F
:101B400091F803C0BCF1480F07D100F1080C4FF029
:101B5000010808FA0CF8C2F81080401C0828CED3FF
:101B60005460BDE8F0814FF6FF7101800221817061
:101B70000421C17070470246002093680B400BB1EE
:101B8000012000E0002070470146886880B270475D
:101B900002460020D3680B400BB1012000E000207A
:101BA00070470146C86880B2704701617047416163
:101BB00070470AB1016100E041617047C160704740
:101BC0004FF480320A438261816182618269826955
:101BD000704702460020434B18684FF68073184048
:101BE00040EA021008433F4B186070473E49C86105
:101BF0007047F0B50A46002300240021002500F0BC
:101C00000046B6F1004F02D1364EF16901E0354E83
:101C10007168C0F3034583B200F44016B6F5401F67
:101C200008D121F070612F4E766826F070662D4F36
:101C30007E6012E000F48016B6F5801F06D1032600
:101C400006FA05F4A14341F0706106E0460D360145
:101C500003FA06F6B14341F0706122B1460D360138
:101C600003FA06F6314300F00046B6F1004F02D108
:101C70001C4EF16101E01B4E7160F0BD30B50022D9
:101C80008B071C0F0F2303FA04F2164B08338C103A
:101C900053F824309343134C08348D1044F8253006
:101CA00023468C1053F824308C07240F00FA04F4D8
:101CB00023430C4C08348D1044F8253030BD0A49BC
:101CC000DC3108607047000000080140000C014052
:101CD000001001400014014000180140001C0140A8
:101CE000002001400000014000002042DF48006861
:101CF00040F00100DD49086008464068DC490840C2
:101D0000DA49486008460068DA490840D74908605F
:101D10000846006820F4802008600846406820F4E7
:101D2000FE0048604FF41F0088607047CF49096883
:101D300021F48031CD4A11601146096821F48021D7
:101D40001160B0F5803F03D0B0F5802F0ED106E0D2
:101D5000C649096841F48031C44A116007E0C349AB
:101D6000096841F4A021C14A116000E000BF00BF32
:101D7000704710B501460022002300204A11012AB5
:101D800002D1BA4C236806E0022A02D1B74C236A7A
:101D900001E0B64C636A01F01F02012494401C402C
:101DA0000CB1012000E0002010BD38B500200090EB
:101DB0000024002500BF3120FFF7DBFF0546009817
:101DC000401C00900098B0F5A06F01D0002DF2D01B
:101DD0003120FFF7CEFF08B1012400E000242046A7
:101DE00038BD01460020A14A106820F0F80040EA02
:101DF000C10010607047A04908607047024600208B
:101E00009A4B586820F47C1042EA01031843974B20
:101E10005860704798490866704701460020934A09
:101E2000506820F003000843506070478F484068B6
:101E300000F00C007047014600208C4A506820F0EA
:101E4000F00008435060704701460020874A506800
:101E500020F4E06008435060704701460020834A48
:101E6000506820F4605040EAC1005060704729B1CA
:101E70007E4A527A02437D4B5A7204E07B4A527A80
:101E800082437A4B5A7270477B49D8310860704759
:101E900001460020754A506820F4404008435060D5
:101EA00070470021714A20321170704A82F8201068
:101EB000012802D004280AD104E001216B4A203213
:101EC000117005E00521694A2032117000E000BF61
:101ED00000BF70476949086070476449096A014357
:101EE000624A11627047654944390860704730B5ED
:101EF00000210022002400235C4D6D6805F00C01D8
:101F000021B1042905D0082923D105E05C4D0560E5
:101F100022E05B4D05601FE0544D6D6805F47012C2
:101F2000524D6D6805F48034022505EB92421CB9D0
:101F3000544D554305600BE04C4D6D6805F400357C
:101F40001DB1504D5543056002E04D4D55430560B0
:101F500002E04B4D056000BF00BF444D6D6805F0C9
:101F6000F0010909484D6B5C0568DD4045603F4D57
:101F70006D6805F4E061090A434D6B5C4568DD401E
:101F800085603A4D6D6805F46051C90A3E4D6B5C41
:101F90004568DD40C560354D6D6805F44041890BED
:101FA0003A4D6B5CC568B5FBF3F5056130BD29B1F1
:101FB0002E4A526902432D4B5A6104E02B4A526962
:101FC00082432A4B5A61704729B1284A92690243D9
:101FD000264B9A6104E0254A92698243234B9A6119
:101FE000704729B1214AD2690243204BDA6104E0EB
:101FF0001E4AD26982431D4BDA61704729B11B4AE0
:10200000D2680243194BDA6004E0184AD26882436E
:10201000164BDA60704729B1144A12690243134B18
:102020001A6104E0114A12698243104B1A61704729
:1020300012494039086070470F49C86470470B491E
:10204000C87170470948406A40F08070074948628B
:10205000704701460020054A92680A400AB10120F3
:1020600000E000207047014988727047001002406C
:102070000000FFF8FFFFF6FE0000424280044242EB
:1020800000127A0000093D009A080020AA080020EA
:1020900010B50446FB48844209D101218803FFF7AB
:1020A000ADFF00214FF48040FFF7A8FF32E0F64873
:1020B000844209D101214804FFF7ADFF00214FF40C
:1020C0000030FFF7A8FF25E0F048844209D1012144
:1020D0008804FFF7A0FF00214FF48020FFF79BFF4B
:1020E00018E0EB48844209D10121C804FFF793FFAF
:1020F00000214FF40020FFF78EFF0BE0E5488442FB
:1021000008D101210805FFF786FF00214FF4801058
:10211000FFF781FF10BD2DE9F04786B005460E465A
:102120000024A24600BFA1460027B08900B100BF2D
:102130002F462C8A4CF6FF700440F08804432C8212
:10214000AC894EF6F3100440B08831890843718998
:1021500008430443AC81AC8A4FF6FF400440B08989
:102160000443AC8201A8FFF7C2FEC648874202D1F1
:10217000DDF810A001E0DDF80CA0A88900F4004013
:1021800040B10AEBCA0000EB0A1031684900B0FB0D
:10219000F1F807E00AEBCA0000EB0A103168890089
:1021A000B0FBF1F86420B8FBF0F0040120096421D1
:1021B00001FB1089A88900F4004040B1322000EBF7
:1021C000C900B0FBF1F000F00700044308E0322042
:1021D00000EB09106421B0FBF1F000F00F000443A4
:1021E0002C8106B0BDE8F0874FF416510160002144
:1021F0008180C18001810C21418100218181704752
:1022000010B502460020108A4FF2FF0318400B88D9
:102210004C8823438C882343CC8823431843108263
:1022200010BD0021018041808180C180704721B1B3
:10223000828942F40052828104E082894DF6FF7364
:102240001A4082817047F0B503460024002600251D
:10225000002040F66A17B94200D100BF1846C1F30A
:10226000421401F01F06012707FA06F5012C01D1DF
:102270000C3004E0022C01D1103000E014301AB10F
:1022800007682F43076002E00768AF430760F0BDAF
:102290001AB1838A0B43838202E0838A8B43838251
:1022A0007047028A4FF6F0731A400282028A0A438C
:1022B0000282704782894FF2FF731A4082818289BD
:1022C0000A438281704721B1828942F002028281F1
:1022D00004E082894FF6FD731A4082817047028ABA
:1022E0004FF6DF731A400282028A0A430282704765
:1022F00021B1028A42F48042028204E0028A4BF653
:10230000FF731A4002827047C1F30802828070474F
:1023100001468888C0F308007047818941F00101B7
:1023200081817047028BD2B20283028B42EA012282
:1023300002837047028B02F47F420283028B0A43BE
:102340000283704721B1828A42F02002828204E037
:10235000828A4FF6DF731A408282704721B1828AE7
:1023600042F01002828204E0828A4FF6EF731A4034
:102370008282704721B1828A42F00802828204E0A0
:10238000828A4FF6F7731A408282704721B18289A0
:1023900042F40042828103E08289C2F30E0282810C
:1023A000704721B1828A42F40062828204E0828A0C
:1023B0004FF2FF731A4082827047828A4FF6FB7396
:1023C0001A408282828A0A438282704721B1828ABD
:1023D00042F00202828204E0828A4FF6FD731A40C4
:1023E0008282704702460020B1F5007F00D100BF15
:1023F00013880B400BB1012000E00020704701F46E
:102400000072B2F5007F00D100BFCA43028070475E
:1024100070B50246002400230025002040F66A160D
:10242000B14200D100BFC1F3421501F01F030126E4
:1024300006FA03F3012D02D19689334006E0022DFE
:1024400002D1168A334001E0968A33400C120126ED
:1024500006FA04F41688344013B10CB1012000E0F0
:10246000002070BD10B50022002340F66A14A1427E
:1024700000D100BF0A1201249440A3B2DC430480BF
:1024800010BD0000003801400044004000480040FA
:10249000004C00400050004031490143314A116076
:1024A000704770B5002100230F22C47804B32D4C6F
:1024B000246804F4E064C4F5E064210AC1F1040373
:1024C000CA40447804FA03F1847814402143090196
:1024D000254C0678A155047804F01F050124AC4072
:1024E00005786D11AD0005F1E025C5F8004109E062
:1024F000047804F01F050124AC401C4D06787611C9
:1025000045F8264070BD1A4A0A400243154B1B1F6E
:102510001A60704739B1134A121D12680243114BF9
:102520001B1D1A6006E00F4A121D126882430D4BF4
:102530001B1D1A607047042808D14FF0E02109697B
:1025400041F004014FF0E022116107E04FF0E0217B
:10255000096921F004014FF0E02211617047000089
:102560000000FA050CED00E000E400E080E100E08E
:1025700080FFFF1F002044490860091D0860091DF5
:102580000860091D086041483F49143108607047E0
:1025900000213D498279002A3AD00A461268036830
:1025A0009A430B461A600A1D126803689A430B1D72
:1025B0001A60027911440A6803681A430A60324AB1
:1025C0000832126803689A432F4B08331A601A1DA9
:1025D000126803689A432C4B0C331A604279102A14
:1025E0000ED11A1F126803681A43274B08331A606A
:1025F0001A1D126803681A43234B0C331A600DE04E
:102600002149427911440A6803681A430A6005E0C7
:10261000027911440A6803689A430A6070470021EE
:10262000016001710C2141710021817170471649CF
:10263000103109680143144A103211607047014695
:102640000020114A143212680A400AB1012000E049
:10265000002070470C491431086070470146002083
:102660000022094B1B6803EA0102074B14331B6865
:102670000B4013B10AB1012000E00020704702496D
:10268000143108607047000000040140FFFF0F0094
:1026900001460020FE4A106800F038000843106030
:1026A0007047FB49096821F00801F94A1160114699
:1026B0000968014311607047F549096821F010016C
:1026C000F34A116011460968014311607047F148EF
:1026D000EF494860F04848607047EE48EC49486070
:1026E000ED4848607047EA48006940F08000E849DA
:1026F00008617047E648006940F08000E4490861DD
:1027000070470420E249C96801F0010109B10120C4
:102710000EE0DF49C96801F0040109B1022007E0B9
:10272000DB49C96801F0100109B1032000E0042071
:10273000704700B502460423FFF7E3FF034603E0BA
:10274000FFF7DFFF0346521E012B01D1002AF7D10C
:1027500002B90523184600BD30B5044604254FF4E0
:102760003020FFF7E6FF0546042D17D1C848006961
:1027700040F00200C649086108464461006940F023
:10278000400008614FF43020FFF7D3FF0546C048F2
:10279000006941F6FD710840BD490861284630BD19
:1027A00010B504244FF43020FFF7C3FF0446042C77
:1027B00016D1B748006940F00400B54908610846E1
:1027C000006940F0400008614FF43020FFF7B1FF8E
:1027D0000446AF48006941F6FB710840AC49086106
:1027E000204610BD00B502460423FFF78AFF0346CA
:1027F00003E0FFF786FF0346521E012B01D1002A9A
:10280000F7D102B90523184600BD10B504244FF4D2
:102810003020FFF7E7FF0446042C16D19C480069DE
:1028200040F004009A4908610846006940F0400001
:1028300008614FF43020FFF7D5FF04469448006943
:1028400041F6FB71084092490861204610BD002006
:102850008F49C96901F0020109B1012000E000209F
:10286000704730B5A5250424FFF7F1FF00B100251E
:102870004FF43020FFF75DFF0446042C3AD1854821
:1028800083498860844888600846006940F02000D9
:1028900008610846006940F0400008614FF43020AC
:1028A000FFF747FF0446042C1BD17948006941F625
:1028B000DF710840764908610846006940F0100061
:1028C000086176480580E002FFF733FF0446052CD7
:1028D00010D06F48006941F6EF7108406C490861FB
:1028E00008E0052C06D06A48006941F6EF710840FF
:1028F00067490861204630BD78B506460C46042578
:1029000000200090E802FFF714FF0546042D24D1B3
:102910005F48006940F001005D4908613480E802C9
:10292000FFF707FF0546042D10D1B01C0090200CC6
:1029300000990880E802FFF7FCFE0546544800694C
:1029400041F6FE7108405249086106E050480069AE
:1029500041F6FE7108404E490861284678BD70B5C1
:1029600004460D460426F002FFF7E3FE0646042E59
:1029700011D14748006940F00100454908612580B0
:10298000F002FFF7D6FE06464148006941F6FE71A7
:1029900008403F490861304670BD70B505460E4697
:1029A0000424E002FFF7C5FE0446042C17D1394881
:1029B00037498860384888600846006940F0100050
:1029C00008612E80E002FFF7B4FE0446052C06D015
:1029D0002F48006941F6EF7108402D4908612046F3
:1029E00070BD2DE9F04304464FF6FF763746B046FA
:1029F000B1460425E443E6B2C4F30727C4F307480D
:102A00004FEA1469E802FFF794FE0546042D49D108
:102A100020481F498860204888600846006940F0C7
:102A200010000861FF2E06D01C4808300680E8021E
:102A3000FFF77FFE0546042D08D1FF2F06D017486B
:102A40000A300780E802FFF774FE0546042D0AD11C
:102A5000B8F1FF0F07D011480C30A0F80080E80251
:102A6000FFF767FE0546042D0AD1B9F1FF0F07D025
:102A70000A480E30A0F80090E802FFF75AFE05461B
:102A8000052D0FD00248006941F6EF71084007E0BC
:102A90000020024023016745AB89EFCD00F8FF1FFE
:102AA000664908612846BDE8F08330B50546042430
:102AB0004FF43020FFF73DFE0446042C41D160481E
:102AC0005E4988605F4888600846006940F02000E1
:102AD00008610846006940F0400008614FF430206A
:102AE000FFF727FE0446042C22D15448006941F622
:102AF000DF710840514908610846006940F0100044
:102B000008611DB100205049088002E0A5204E490F
:102B100008804FF43020FFF70CFE0446052C10D03F
:102B20004648006941F6EF7108404449086108E0F1
:102B3000052C06D04148006941F6DF7108403F4945
:102B40000861204630BDF0B505460E461746042400
:102B50003B483A4988603B488860E002FFF7E9FD5E
:102B60000446042C19D13548006940F0100033495F
:102B7000086147F0F800304328433349891C088036
:102B8000E002FFF7D6FD0446052C06D02B4800696D
:102B900041F6EF710840294908612046F0BD2748F9
:102BA000C069800870472548006A704700202349A3
:102BB000096801F0200109B1012000E00020704700
:102BC00029B11E4A126902431C4B1A6104E01B4AD8
:102BD00012698243194B1A6170470146002001298E
:102BE00008D1164AD26902F001020AB1012008E0B8
:102BF000002006E0114AD2680A400AB1012000E034
:102C0000002070470D49C860704704200B49C9680F
:102C100001F0010109B101200EE00849C96801F085
:102C2000040109B1022007E00449C96801F010015C
:102C300009B1032000E0042070470000002002409A
:102C400023016745AB89EFCD00F8FF1F70470000F7
:102C50000FB4044910B503AA029800F0ABFA10BCF7
:102C60005DF814FB940800202DE9F0474FF0000AAE
:102C700089460446C0F820A02046E168884700281D
:102C800076D0252806D0D4E901219047206A401C3F
:102C90002062F1E7E168204600258847C4F81CA0BF
:102CA00006460027C4F818A02A2E09D0304601F0A5
:102CB00073F838B304EB8708303EC8F8186019E0A1
:102CC00059F8041B204604EB87029161E1688847AC
:102CD000012F064618D1E069002820DA25F02005EA
:102CE0001DE0D8F8180000EB800006EB40003038FB
:102CF000C8F818002046E1688847064601F04CF8FD
:102D00000028EED1012F0AD02E2E08D12046E168EE
:102D100088477F1C0646022F45F02005C4DBA069CA
:102D2000002803DA404245F00105A061E80701D020
:102D300025F01005B6B1A6F14100192802D82036B9
:102D400045F400654A463146204625604D46FDF76C
:102D50004DFA58B1012806D0ED1D25F0070000F10D
:102D6000080989E704E005F1040985E730468AE7A8
:102D7000206ABDE8F087704770477047704710B50C
:102D800000F02EFA006810BD10B5044600F028FAD5
:102D9000046010BD70472DE9FF4F0C461E464FF0F2
:102DA000FF378BB0D2E90001DDF860800A908A46D7
:102DB000C1F30A5505B93D46002108464FF0000011
:102DC000BAF1000F00F4400005DA00EB80004FF488
:102DD000400101EA50004FEA9059B9F1010F00DDBE
:102DE000B9460A9850EA4A000ED044F61050A5F2AF
:102DF000FF3545432F14B8F1000F1ED07542291E30
:102E00001EDDC9F100021CE0B8F1010F4FF0000017
:102E100001D0302103E0F24305E02154401CB042D0
:102E2000FBDB30460022002121540B99C1F80880B9
:102E3000C1E900200FB0BDE8F08FBD1B6D1CDEE7BF
:102E40004A4600DA694206A800F06CFA06AB93E83D
:102E5000070003AB83E8070050460A9900F04AFBDD
:102E60008DE80700A0F500501F3800900398002D52
:102E70000ADD42F21F014A460844002303A90390D9
:102E8000684600F0B3FD09E0A0F500504A461F383F
:102E9000002303A90390684600F0BDFD8DE80700FC
:102EA0000004000C03D04FF0FF30410800E0104652
:102EB000B8F1000F03D00022009215461EE0751EE7
:102EC00005D400F091F9303262556D1EF9D5B34644
:102ED0000122084302D000227F1C04E02078302821
:102EE00001D100227F1E002A099784D01DE0112DF8
:102EF00007DA00F079F9303262556D1C50EA0102B0
:102F0000F5D1084302D00098C8B10EE00021681E38
:102F100005E0235C625C63542254401E491C8142DC
:102F2000F7DBAB46A81B401E0990002004F80B00FD
:102F30000B98099AC0F80880C0E9002B7AE711269F
:102F40004FF0000857E72DE9F04F88460446D21DA0
:102F500022F0070191B0D1E90001CDE90A0100F0AA
:102F600091FE02460B98C00F01D02D2007E020688B
:102F7000810701D52B2002E0202101EAC000032AAD
:102F8000099001D0072A05DB03464146204600F0A0
:102F900089F90BE12078800601D5E06900E0062080
:102FA000B8F1650F814606D0B8F1660F18D0B8F1B8
:102FB000670F70D131E00020B9F1110F009001DBF3
:102FC000112301E009F101030AAA01A90CA8FFF7E6
:102FD000E2FEDDE90C70002609F10105834647E0B9
:102FE00001204B4600904FF000470AAA01A90CA807
:102FF000FFF7D1FEDDE90DB00C995D46002610B952
:1030000009F101000D18B9EB050003D4C0F1FF363A
:1030100009F10105A5EB09002BE0B9F1010F01DA77
:103020004FF001090020B9F1110F0090484601DD71
:10303000112300E003460AAA01A90CA8FFF7ABFE82
:10304000DDE90C704D4600268346207800070AD43F
:10305000AB4500DA5D4601A8012D04DD411911F8E8
:10306000011C302907D04F4502DA17F1040F04DAAA
:10307000012082460FE06D1EEEE7002F02DCED1B03
:103080003E4403E0781CA84200DD7D1CB81B00F123
:10309000010A4FF000472078000703D4AA4501DB5E
:1030A0004FF0FF3A0021B7F1004F0DF143088DF8C2
:1030B000431024D002202B23002F01DA7F422D233E
:1030C0000A21021EA0F1010000DC5FB197FBF1FCB8
:1030D00097FBF1F201FB1C7C17460CF1300C08F851
:1030E00001CDEEE7A8F1010003702188090501D5A3
:1030F000452100E06521A0F1010800F8011C0998B4
:103100000FA9A1EB0807FF1D00B10120411901EB38
:10311000EA70A1693844081A401EA0612078C006F0
:1031200002D42046AFF30080099828B1D4E90121E8
:103130009047206A401C20622078C00622D5204695
:10314000AFF300801EE0002E04DBB34502DD01A8D2
:10315000805D00E03020D4E901219047206A401CC6
:103160002062761CAAF101005FEA000A0AD100F091
:1031700033F8C0680168405CD4E901219047206AB7
:10318000401C2062281EA5F10105DCDC07E0D4E923
:10319000012118F8010B9047206A401C2062381E5C
:1031A000A7F10107F3DC2046AFF30080032011B044
:1031B00041E60000074B70B50D467B4400F05FF818
:1031C0000446284600F020F910B14FF0FF3070BDE2
:1031D000204670BD59E6FFFF00487047AC2A00202A
:1031E000004870478C2A002030B5B0F10A024FEA3F
:1031F000900E71F100034EEA817EB0EB0E0061EBA0
:1032000091014FEA101E4EEA017E10EB0E0041EBD9
:1032100011114FEA102E4EEA016E10EB0E0041EB39
:1032200011214FEA104E4EEA014E10EB0E0041EB19
:103230001141401841F100014FEAD00040EA4170CD
:103240004FEAD10110EB80054FEA810444EA907403
:1032500044EB01046D1944EB0404521BA3414FF0ED
:10326000000348BF0A3200D530BD401C41F10001C7
:1032700030BD000001694A1C02610878704700B542
:103280008FB0CDE901310021059105497944CDE99F
:10329000031011466846FFF7E7FC0FB000BD0000C1
:1032A000E5FFFFFF2DE9F0411F46044603260168B4
:1032B000072A01F4006004DB08B116A505E016A595
:1032C00003E008B115A500E015A521F0100020606D
:1032D000A069C01EA0610FB1401EA0612046AFF3DF
:1032E00000804FB1D4E9012138469047206A401C44
:1032F0002062C01C206206E0206AFAE7D4E90121BE
:1033000015F8010B9047761EF8D22046AFF30080E7
:10331000BDE8F0814E414E006E616E00494E4600A0
:10332000696E66002DE9F047814616468AB0354839
:1033300078440DC88DE80D0032487844801C03ACF9
:103340000DC884E80D0041F69B300844372190FBFE
:10335000F1F290FBF1F5A5F1800501FB12041B3C95
:1033600002D56442012000E00020DFF898A08046EA
:103370000027FA44AAF1BE0A0EE0E0070AD032465E
:10338000684607EB470101230AEB810100F043FB8C
:103390008DE8070064107F1C002CEED1194F7F448C
:1033A000AE3F19E0E80715D007EB04100DF1180A3D
:1033B00090E80E008AE80E00C068F04201D198192A
:1033C00008903246012306A903A800F024FB03ABB2
:1033D00083E807006D10641C002DE3D14FF001035A
:1033E00032466946B8F1000F03A802D000F0FEFA99
:1033F00001E000F010FBC9E90001C9F808200AB09B
:10340000BDE8F08700280000007B00F080007047D6
:10341000004870478C2A00207546FFF7F9FFAE463A
:1034200005006946534620F00700854618B020B5D0
:10343000FEF79CFABDE820404FF000064FF0000771
:103440004FF000084FF0000B21F00701AC46ACE84C
:10345000C009ACE8C009ACE8C009ACE8C0098D46B9
:10346000704710B50446AFF300802046BDE8104019
:10347000FCF7D6BE4FF0013C50F8042B51F8043B4A
:103480009A4221D1A2EB0C03934313EACC1317D138
:1034900050F8042B51F8043B9A4215D1A2EB0C03CF
:1034A000934313EACC130BD150F8042B51F8043B8F
:1034B0009A4209D1A2EB0C03934313EACC13DBD05D
:1034C0004FF00000704700BFD01A01BAB1FA81F185
:1034D00001F0180122FA01F0CB40C1F12001DBB26A
:1034E000C0B2C01A2CFA01F3D11A914311EAC311E8
:1034F000E6D170475FEA400C08BF91F0000F4FEA39
:103500008C234FEAC12243EA51514FEA1C5018BFA5
:1035100000F5F0404FEA300018BF41F000415FEA8B
:103520006C5C00F02980BCF1FF3F08BF40F0804098
:103530007047130C06BF12044FF0100C4FF0000C34
:10354000130E04BF12020CF1080C130F04BF12017A
:103550000CF1040C930F04BF92000CF1020CD30F7A
:1035600004BF52000CF1010C11464FF00002A0F113
:103570001F00A0EB0C00704711F0004F08BF704710
:1035800031F000413FF4D5AF0B0C06BF09044FF0FA
:10359000100C4FF0000C0B0E04BF09020CF1080CCC
:1035A0000B0F04BF09010CF1040C8B0F04BF890041
:1035B0000CF1020CCB0F04BF49000CF1010CCCF153
:1035C0002003A0EB0C0022FA03F302FA0CF241EA0A
:1035D000030100F10100704720F07F4C80EA0300F6
:1035E00023F07F47ACEB070303F57C5300F000406A
:1035F00003F1FF032DE980494FEA154B09B44FEA67
:10360000144325EA0B4E24EA03480FF2042606EB86
:10361000132749083E785FEA320203FB0667C7F5C5
:10362000000707FB06F64FEA54374FEAD64606F185
:10363000020607FB066CCCF1005C4FEA1C472CEA43
:10364000074C07FB06F40CFB06F504EB15464FEAA6
:10365000961634BF00204FF000404FEAD13706FBEA
:1036600007FC4FEA1C4C0CFB0BF7D21B03FB0CF7BF
:1036700061EB07010CFB0EF7B0EB074072EB174252
:103680000CFB08F734BFA2EB0742B2EB074261EB39
:1036900017414FEA0C444FEA910706FB07FC4FEA3B
:1036A0001C4C0CFB0BF7B0EBC74072EB573203FB23
:1036B0000CF734BFA2EBC742B2EBC74261EB573104
:1036C0000CFB0EF7B0EBC70072EB57720CFB08F760
:1036D00034BFA2EBC702B2EBC70261EB5771039F85
:1036E0004FEA816141EA921104EBCC044FEAD137F1
:1036F0004FEA826206FB07FC42EA90124FEA8060C2
:103700004FEA1C4C0CFB0BF7D21B03FB0CF761EBD5
:1037100007010CFB0EF7B0EB074072EB17420CFBF6
:1037200008F734BFA2EB0742B2EB074261EB174147
:103730004FEA8C554FEA910704EB9C2406FB07FCEB
:103740004FEA1C4C0CFB0BF7B0EBC74072EB573247
:1037500003FB0CF734BFA2EBC742B2EBC74261EBED
:1037600057310CFB0EF7B0EBC70072EB57720CFB36
:1037700008F734BFA2EBC702B2EBC70261EB577187
:1037800015EB4C254FEA816141EA92114FEA8262C2
:103790004FEAD13742EA901206FB07FC44F10004DD
:1037A0004FEA80604FEA1C4C0CFB0BF7D21B03FB6B
:1037B0000CF761EB07010CFB0EF7B0EB074072EB67
:1037C00017420CFB08F734BFA2EB0742B2EB0742EB
:1037D00061EB174115EB1C154FEA813141EA92412B
:1037E0004FEA823242EA90424FEA80304FEA0C764A
:1037F00044F1000448EA03434EEA0B484FF0000E40
:10380000B2EB080C71EB030724BF624639464EEB5E
:103810000E0E4FF0000B0018524149414BEB0B0BC1
:10382000B2EB080C71EB03077BF1000B24BF62467F
:1038300039464EEB0E0E4FF0000B00185241494135
:103840004BEB0B0BB2EB080C71EB03077BF1000B9E
:1038500024BF624639464EEB0E0E51EA020718BFEE
:1038600046F0010616EB0E7655F1000254F1000108
:1038700003D5BDE88901BDE80088BDE88901BDE840
:103880000048B619524141EB0101A3F10103704711
:1038900080807F7E7D7C7B7A79787776767574738D
:1038A000727171706F6E6E6D6C6C6B6A6A6968684C
:1038B000676666656464636362616160605F5F5EE2
:1038C0005E5D5D5C5C5B5B5A5A5959585857575658
:1038D00056555555545453535252525151505050BD
:1038E0004F4F4F4E4E4D4D4D4C4C4C4B4B4B4A4A0F
:1038F0004A49494948484847474747464646454553
:10390000454444444443434343424242424141418B
:10391000002B9C4630D477002BD01CB54FEA3707DC
:1039200003B44FF010004FF01001BAF1000F06D0B1
:10393000BCF1000FDCBF40F0080040F008014FF080
:1039400000000FBCBDE810400BF1010BBBF1010FF3
:1039500008BF5FEA170722BF12F1010211F101014E
:103960004FF0004143F1000300F0004043EA000043
:103970007047F9D35708D0E746EA064613F1400FDF
:103980004FEA16461FDD13F1200FDFBF16430A462C
:10399000002120335B42BED0C3F1200746EA064631
:1039A00002FA07F74FEA164646EA0706C3F1200770
:1039B00022FA03F201FA07F721FA03F14FF00003AC
:1039C00042EA0702A7E746EA020646EA06464FEA47
:1039D000164646EA0106BCBF46EA0646360C4FF0DC
:1039E00000034FF000024FF0000194E72DE9804CF6
:1039F0009A46934670B491E8380007C831EA400C03
:103A000048BF34EA430C03D5FFF7E6FDFFF780FF1C
:103A1000F0BCBDE8008C2DE9804C9A46934670B40A
:103A200091E8380007C810F0804F08BF13F0804FAE
:103A300003D100F005F8FFF76BFFF0BCBDE8008C88
:103A400020F07F4780EA030023F07F4C07EB0C0354
:103A5000A3F57C5300F00040A3F1FE0392F0000FA9
:103A600000F0B38095F0000F00F077802DE9014958
:103A70004FEA11404FEA144621EA004800FB06FCD9
:103A800024EA064708FB06F607FB08F800FB07F7E1
:103A900018EB06484CEB164C4FEA124B18EB074854
:103AA0004FEA15464CEB174022EA0B4E0BFB06FC87
:103AB00025EA06470EFB06F607FB0EFE0BFB07F793
:103AC0001EEB064E4CEB164C4FF000061EEB074E5D
:103AD0004CEB174B18EB0B0840F1000018EB0E0BEA
:103AE00058EB000840F100008F1A4FF000013CBF76
:103AF000C943661B14BFB5EB040C00213CBFC9438E
:103B0000F61B4FEA17444EEA8E0E27EA04454FEAA9
:103B10001C4704FB07622CEA074C05FB07F70CFB6C
:103B200005F604FB0CFC16EB074642EB174216EBBE
:103B30000C4642EB1C421BEB060658EB02024141CD
:103B400046EA9E0601D5BDE80189B619524141EB0E
:103B50000101A3F10103BDE801894FEA14454FEAD1
:103B6000114724EA054621EA074C05FB07F406FB4A
:103B700007F70CFB06F105FB0CFC11EB074144EBCE
:103B800017444FEA124711EB0C4144EB1C4422EA64
:103B9000074C05FB07F206FB07F70CFB06F605FBD7
:103BA0000CFC16EB074642EB174216EB0C4642EBB9
:103BB0001C456A1854F1000148BF7047B6195241BC
:103BC00041EB0101A3F10103704795F0000F37D0DD
:103BD0004FEA11424FEA144721EA024624EA074C11
:103BE00002FB07F106FB07F70CFB06F402FB0CFCDB
:103BF00014EB074441EB17414FEA154714EB0C4413
:103C000041EB1C4125EA074C02FB07F506FB07F7D1
:103C10000CFB06F602FB0CFC16EB074645EB1745C2
:103C200016EB0C4645EB1C42121951F1000148BF3E
:103C30007047B619524141EB0101A3F101037047EE
:103C40004FEA14454FEA114724EA054621EA074C9A
:103C500005FB07F106FB07F70CFB06F24FF0000629
:103C600005FB0CFC12EB074241EB174112EB0C4237
:103C700051EB1C4148BF7047921841EB0101A3F181
:103C800001037047490050EAC12018BF04204A0DC3
:103C900018BF40F0010040F2FF72B2EB515F08BF65
:103CA00040F00200012808BF052070472DE9F041CF
:103CB0004F1E00EBC7010446D1E9000115461E4620
:103CC00037F006020DD02A46334601F02FF87F1E4A
:103CD00004EBC703D3E9002300F0C0FD37F0060270
:103CE000F1D1022F25D0042F13D0062F18BFBDE825
:103CF000F0812A46334601F019F8D4E90A2300F08E
:103D0000ADFD2A46334601F011F8D4E9082300F04E
:103D1000A5FD2A46334601F009F8D4E9062300F050
:103D20009DFD2A46334601F001F8D4E9042300F052
:103D300095FD2A46334600F0F9FFD4E9022300F04E
:103D40008DFD2A46334600F0F1FFD4E90023BDE89B
:103D5000F04100F083BD00000022134610460149E7
:103D600000F038BE0000F03F00F078BD002213469E
:103D70001046114600F02EBE40F2013200204FF0F6
:103D8000E04101F00ABE0000024A0020110701F0E4
:103D900004BE000001FDFFFF30380A2801D20120D7
:103DA00070470020704700002DE9F04D1D460C467D
:103DB00098B0174621F0004123F00043002814BFBB
:103DC0004FF0010C4FF0000C0CEB440CFE4A0CEBD6
:103DD00002064FEA620C66452BD33E0018BF01264F
:103DE00006EB45061644F94A964222D3F84A53EAAE
:103DF000070C02D0944205D148B918B000201146F2
:103E0000BDE8F08D002808BF4FF0000C01D04FF046
:103E1000010C0CEB440212F5001F0AD8002F14BF4E
:103E20004FF0010C4FF0000C0CEB450212F5001F97
:103E300007D918B03A462B462146BDE8F04DFFF7AA
:103E400093BF0022DFF88CA3002CB8BF534526DABD
:103E5000DFF884C36345A8BF022220DADFF870C30D
:103E60009C451CDCDFF874C30CEB235CBCF1140F25
:103E700008DDCCF1340627FA06FC0CFA06F6BE4241
:103E80000DD108E05FB9CCF1140623FA06FC0CFA58
:103E900006F69E4203D10CF00102C2F1020251EA81
:103EA000000C19D1002D17DA002C18BF022A01D0FE
:103EB000012A07D00220FEF767FF18B0BDE8F04DD9
:103EC000FFF74ABF0220FEF75FFFFFF745FF18B07C
:103ED00081F00041BDE8F08DB7F1000C6CD1534585
:103EE00025D104F1804212F5801201BF0028002084
:103EF000B74918B008BFBDE8F08DB548884207DC67
:103F0000002DA1BF6046294618B0BDE8F08D07E03E
:103F1000281E05DA80F0004118B06046BDE8F08D3B
:103F2000AF497944D1E9000118B0BDE8F08DDFF860
:103F3000A0C2634525D1002D1FDA19B1514512D118
:103F4000D8B909E0002840F0EC82A24A214618B016
:103F500062F31E01BDE8F08D0020214618B060F329
:103F60001E01BDE8F08D08DA18B02346BDE8F04D1B
:103F700002460020614600F02DBD18B02146BDE884
:103F8000F08D514518DAB5F1804F0DD0A5F1005CE8
:103F9000BCF1FF5C10D1B4F1000C0DDB18B0614630
:103FA000BDE8F04D00F0ECBB234618B00246BDE87A
:103FB000F04D194600F0BABE060024F0004C3BD18B
:103FC000D9B1514533D1002C06DD002DA1BF002011
:103FD000514618B0BDE8F08D002C01DD002D1BDB33
:103FE000002C13DA002D11DB012A4FF0000014BF62
:103FF00078497C4918B0BDE8F08D022A18BF002C22
:104000000AD0012A08D1002C06DA0AE0002CB8BF39
:10401000002D11DA012A04D0002018B00146BDE8B5
:10402000F08D18B000204FF00041BDE8F08DA1F1F7
:104030004050B0F17F601AD0012000EBE47050EAEC
:10404000020421D0624C521E4FF0000B104304BFFB
:104050004FF0000B644C654883427CDD644A654840
:1040600093421FDD884217DB002D25DB37E0002C53
:1040700000DA4AB1022A0CBF01204FF0FF3018B01D
:10408000BDE8F04D00F0FEBD0120FEF77DFE18B04A
:10409000BDE8F04DFFF76ABE4D4A8A4202DC002DB2
:1040A0000ADC1CE0814202DA002D18DA04E0484BF9
:1040B000994220DD002D12DD0220FEF765FEFFF79C
:1040C0005BFE05460E46002253465846214600F048
:1040D0002DFE18B066F31E012846BDE8F08D0220C3
:1040E000FEF752FEFFF750FE0A46214618B062F373
:1040F0001E01BDE8F08D00223046614601F03CF81B
:1041000080460E466FF0010201F047FC4FF0553239
:10411000394B00F03FFF4246334600F007FE0022D5
:10412000364B00F037FF8246424633460491104634
:10413000194600F0FBFD5246049B00F0F7FD8A464D
:1041400000904FF0C0422E4B4046314600F0EEFD4D
:104150002C4A2B4B00E027E0CDE9060151460098A0
:1041600000F0E4FD82460191274A284B4046314643
:1041700000F0DCFD5246019B00F0FEFF82460B463C
:1041800002460591DDE9060100F068FBDDE9062342
:1041900000268846304600F0EFFF5246059B00F0AF
:1041A000F9FE024600F07EB90020B1F5801F07DA63
:1041B00035223046614601F0F0FB06466FF03400D0
:1041C00000EB215024E00000FFFF1F00FFFF0F0065
:1041D0000000F03F0000F07F0000404301FCFFFFC3
:1041E0008A1B00000000F0FF0000F0BF0000E0416B
:1041F0000000F043FFFFEF3F5555D53F0000E03F83
:104200004715F73FFE822B6544DF5DF80BAE543E49
:10421000A0F2FF300190C1F3130040F07F6141F044
:1042200040510291FE498842D8BF002004DDFD497B
:104230008142C8BF012001DD0D9008E000200D90F3
:104240000198401C01900298A0F5801002900299FC
:10425000F54878440B910D9900EBC100D0E900239B
:104260000F9330460A920B9900F086FFCDE90601C4
:10427000DDE90A2130460F9B00F0F0FA02460B46BA
:104280000020EA4900F0A6FB059102460B4600908B
:10429000DDE9060100F04AFD1490E5488A464FF03A
:1042A000000878440299006812904FF0005040EAEC
:1042B00061010D980F9B01EB804000F500210991F1
:1042C0000A9A129800F058FF32460B9B00F062FEEB
:1042D0004246534600F02AFD0646029140465146AA
:1042E000099B129A00F022FDDDE9062300F052FE40
:1042F0003246029B00F040FF059B009A00F016FD3D
:104300000091149A049053461046194600F00EFD91
:1043100006460246C7480B46029106217844FFF73D
:10432000C5FCCDE90510029B32461046194600F047
:10433000FDFCDDE9053200F0F9FC05910646534627
:1043400040461946149A00F089FA009B049A00F03E
:10435000EDFC3246059B00F081FACDE9051042469E
:1043600053461046194600F0E1FC0022B24B029180
:104370000A9000F073FADDE9053200F06FFA0E469C
:104380004246AD4B404600F0F7FE029B0A9A00F011
:10439000F3FEDDE9053200F0FDFD424602910A9090
:1043A00033461046514600F0C1FCCDE906015346A4
:1043B000149A02990A9800F0B9FC8A460290334692
:1043C00042460099049800F0B1FC5346029A00F06E
:1043D00045FA82460B4602460591DDE9060100F0EA
:1043E0003DFADDE9062300208846064600F0C4FEBB
:1043F0005246059B00F0CEFD824609914FF0604287
:104400008E4B3046414600F091FC049006918C4A58
:104410008A4B5046099900F089FC82460291894AEC
:10442000894B3046414600F081FC5246029B00F029
:1044300015FA864B7B440D9A03EBC203D3E90023A4
:1044400000F00CFA0E900791019800F01BFC05910A
:10445000DDE9061382460E9A049800F0FFF97C4AC3
:104460007A440D9B02EBC303D3E90023009302922D
:1044700000F0F4F95246059B00F0F0F9002688465A
:1044800052463046059B00F077FE009B029A00F0F2
:1044900073FE069B049A00F06FFE079B0E9A00F0D5
:1044A00079FD024600200B4602903846294600F06E
:1044B0003DFC824601912B4638461946029A00F08F
:1044C0005BFE3246434600F031FC5246019B00F051
:1044D000C5F907468A46324643462946029800F007
:1044E00025FC05460E463A46534600F0B7F9594AB0
:1044F0008846914221DBA8EB020353EA000210D167
:104500002A46334600F038FECDE90401524A534BA7
:104510003846514600F0A2F9DDE9042300F004FD1D
:1045200021D20220FEF730FCFFF726FC0A46214686
:1045300018B062F31E01BDE8F08D494B28F000422F
:104540009A4210D3474A08EB020353EA00027FF471
:10455000C6AD2A46334600F00FFE3A46534600F0F9
:10456000E3FC7FF6BCAD0022019228F000403E49FA
:104570003E4A01EB2051824223DA481C4FF480115D
:1045800021FA00F040443A4AC0F30A517A44394BC8
:10459000A1F2FF31CB4020EA0303C0F3130040F443
:1045A0008010C1F11401C84012680190B8F1000FE9
:1045B000BCBF404201902846314600F0DDFD054673
:1045C0000E462A4633463846514600F047F94FF02A
:1045D00000084246284B4046059100F0A7FBCDE974
:1045E0000601264A264B4046059900F09FFB0091A4
:1045F00002902A4633464046059900F0BDFD3A46F2
:10460000534600F0C7FC1F4A1F4B00F08FFB009B76
:10461000029A00F023F90746884602460B4635E029
:104620008E9803007AB60B00D21700000000F03F0E
:104630000A180000381700000000084009C7EE3FC4
:10464000FD033ADCF5015B14E02F3EBE10160000BE
:10465000D415000000009040FE822B654715973C62
:1046600000CC904000346F3F01FCFFFF0000E03FB2
:1046700020150000FFFF0F00432EE63F396CA80C09
:10468000615C20BEEF39FAFE422EE63FDDE906010D
:1046900000F0E4F8DDE9062305460E4600F06CFD67
:1046A0003A46434600F076FC0F462A4633460090D1
:1046B0001046194600F03AFB824602462E488846CC
:1046C0000B4605217844FFF7F1FA5246434600F0C5
:1046D0002DFB2A46334600F05DFC80468A463B4669
:1046E00028463146009A00F021FB3B46009A00F034
:1046F000B5F80691009000224FF0804340465146A5
:1047000000F03AFD0F460C9042465346284631468B
:1047100000F00CFB3B460C9A00F05CF9069B009AFB
:1047200000F02AFD2A46334600F026FD0022134BF6
:1047300000F030FC054601980E4601EB00510815CB
:10474000002810DC28463146019A01F026F9FFF7CF
:1047500099FA042808BFFFF717FB28463146019A4B
:1047600001F01BF905460B4618B02A46584621466B
:10477000BDE8F04D00F0DABAC01300000000F03FD1
:104780002DE9F04106460F4600F010FC041E0D46D0
:1047900018BF0120284320F00040C0F17F6000F1E5
:1047A000E040C00F0ED0301C18BF0120384320F06D
:1047B0000040C0F17F6000F1E040C00F04BF012065
:1047C000FEF7E2FA20462946BDE8F08110B500293F
:1047D0000AD00878002807D005487844FEF74AFE3A
:1047E000002801D0002010BD0248784410BD000010
:1047F000921300008A13000021F00042A2F16052DF
:10480000B2F5801F01F0004328BFD2F17F6C0BD9B5
:104810005FEA001C43EAC20242EB507018BF7047C7
:1048200028BF20F001007047B2F5801FBCBF1846BA
:1048300070474FEA410C1CF5001F02D2084600F0F9
:10484000F4BF70B500F01CFB00000089FFF7F6BF55
:104850004FF00040A0F580007047000010B591EACD
:10486000030F48BF83F0004300F18E84841A71EB7C
:10487000030C05D2121943EB0C03001B61EB0C0176
:10488000DFF824E14FEA1154A4EB135C1EEA430F56
:1048900018BF9EEA445F73D023EA0E03DCF1200EBA
:1048A00021EA045143F4801332D322FA0CFE10EBB8
:1048B0000E0023FA0CFE41EB0E01CCF1200E03FAA0
:1048C0000EFE10EB0E0051F10001B1F5801FCCF18E
:1048D000200E32D201EB045112FA0EF2BDE8104064
:1048E00058BF7047401C38BF5FEA420218BF70478C
:1048F000002814BF20F0010041F100014FEA4103FC
:1049000013F5001F38BF7047A1F1C04100F006BB8E
:10491000012A43EB0302ACF1200CDCF11F0E32BF85
:104920004FF0000E23FA0CF310EB030041EB04519F
:10493000B4EB115FD0D0A1EB045101F5801149080F
:104940005FEA300001EB04510ED350F1000038BF94
:1049500012FA0EFE08D1BDE81040C9E7401C38BF6E
:104960005FEA4202CAD1C3E7BDE810404FEA410303
:1049700013F5001F38BF7047A1F1C04100F0CEBA57
:104980009EEA445F08D011EA5E0FBDE8104004BF04
:1049900001F0004100207047BDE8104070B500F004
:1049A0006FFA00BF64FBBE3E0000E0FF02494FF01B
:1049B000000000F0C0BF00BF0000F87F491058BFE2
:1049C000C1F140415B1058BFC3F140438B42EFF34C
:1049D000008070472DE9C04130B4DFF8A0C23CEA46
:1049E000111418BF3CEA131400F0EC8081EA0305AF
:1049F0001CEA111444EAD57418BF1CEA131500F020
:104A0000C780A4EB05044FF0004545EAC12145EA03
:104A1000C32341EA505143EA525304F17F7499424F
:104A200004F500344FEAC0204FEAC22208BF90428A
:104A300000F09C804FEA13650FF24016765D4FEA56
:104A4000134506FB05F7C7F1807706FB07F74FEA2A
:104A5000D737A7FB03687642C8F58038A7FB06CE98
:104A600038BFA8F1010807FB08E64FF0000EA6FBCF
:104A7000028CE6FB03CEDCF1000CCEF1004E38BF19
:104A8000AEF1010EA6FB0C584FF000074FF00005E9
:104A9000E6FB0E87A1FB08C6A0FB07CE16EB0E06B1
:104AA00045F10005E1FB076515F1E04E7EBFA4F579
:104AB00080345FEA46066D4116F1800745F1000536
:104AC0004FEA17274FEA066647EA0567A6F1DE4672
:104AD000B6F1805F4FEA15251FD9384624F0010C46
:104AE00005EBC471BCF1FE6F01EB0C1102D8F0BCF8
:104AF000BDE8008124425CBF01F5801E9EEAC47FB0
:104B000002D4F0BCBDE80081244238D4F0BCA1F14D
:104B1000C041BDE8004100F001BA4FEAD22242EAAA
:104B200043524FEAD323A7FB02864FEAD02040EA44
:104B3000415007FB03661EEA0E0F4FEAD12105FB29
:104B4000026658BFA6EB0056B6EB00564FEA520E6F
:104B50004EEAC37E18EB0E0E56EB530EBDD518EB86
:104B600002085E417F1C55F10005B6E74FF4801541
:104B70004FF000074FF000064FF00008ADE7F0BC23
:104B80004FF0000001F1C04101F00041BDE800819B
:104B900011EA0C1F0CEA131500D00CE013EA0C1FED
:104BA00000F025804FF00000F0BC81EA030101F025
:104BB0000041BDE80081F0BCBDE8004181EA03018D
:104BC00000F0ACB9F0BCBDE8004170B500F058F998
:104BD000097EFC3E00F007B881EA03014FF00000B7
:104BE00001F00041704781EA030100F097B9F0BC81
:104BF000BDE800414FF0000021497047FFFDFBF97F
:104C0000F7F5F4F2F0EEEDEBE9E8E6E4E3E1E0DEFF
:104C1000DDDBDAD8D7D5D4D3D1D0CFCDCCCBCAC871
:104C2000C7C6C5C4C2C1C0BFBEBDBCBBBAB9B8B798
:104C3000B6B5B4B3B2B1B0AFAEADACABAAA9A8A88B
:104C4000A7A6A5A4A3A3A2A1A09F9F9E9D9C9C9B59
:104C50009A99999897979695959493939291919004
:104C60008F8F8E8E8D8C8C8B8B8A89898888878795
:104C70008685858484838382828181800000FF070A
:104C80000000F87F10F0004248BF4042B0FA80F3C5
:104C900010FA03F10AD0C3F11D0303F580634FEA54
:104CA000415002EB035202EBD12170474FF000005C
:104CB0007047000051EA030C17D41CF5801F58BF41
:104CC000BCF5801F00F10680994218BF704708BFED
:104CD0009042704707D711F5801F58BF13F5801F0A
:104CE00019D499427047894270471CF5801F08D536
:104CF000BCF5801FF7D58B4218BF704708BF8242B2
:104D000070474FF4001C1CEB410F38BF1CEB430FE6
:104D100001D28B42704770B500F0B2F8922449007E
:104D20004FF000514FF08053FFF748BEDFF848C105
:104D300070B51CEA111E1EBF1CEA13159EEA0C0F6B
:104D400095EA0C0F00F06F8081EA030423EA4C130C
:104D50004EEAD47E21EA4C1141F4801143F48013D1
:104D6000AE44A1FB024CA0FB0365AEF17F7E361979
:104D700055EB0C05A1FB034C4CF10003A0FB021CFE
:104D800016EB0C06654153F10003094218BF46F0CB
:104D9000010613F4007F0BD14FEA03314FEA0530CF
:104DA000340341EA155140EA16506FF003020AE05D
:104DB0004FEAC3214FEAC520F40241EA555140EAC7
:104DC00056506FF0020202EB2E4201EB025585EACB
:104DD000CE710AD05FEA440C18BF24F0004450F1B1
:104DE000000041F1000120EAD47040F2FE7C6245EF
:104DF00000D270BDA84214BF4FF080444FF0404431
:104E0000002E08BF0024BEF1806FA8BFA1F1C041F1
:104E1000BDE8704080F282804FF0000001F1C04197
:104E200001F0004170479EEA0C0F0CEA131518BF01
:104E300095EA0C0F06D04FF0000081EA030E0EF049
:104E4000004170BD00F01CF88900013E00F007B879
:104E500000F009B84FEA430C5FEA5C5C08D081EAD5
:104E6000030100F05BB84FEA410C5FEA5C5CF6D1ED
:104E70004FF00000014970470000FF070000F87F75
:104E80000EF1020E2EF0030E5EF8046B364205D4CE
:104E9000012A43EB030515F5001F12D8012841EB49
:104EA000010C1CF5001F0CD80ED14FEAD17C15F572
:104EB000001F0CEB4C0C0CF1020C08BF4CEBD37C2C
:104EC00004E04FF0080C01E04FEAD37C0CEB4C05FA
:104ED00026FA05F606F00706B6F1040C06D20EEB2C
:104EE000860CBDE870404CF0010C6047DFE80CF028
:104EF000090B02024FF000414FF00000A1F5002124
:104F000070BD19461046012851EB010418BFD4F5B5
:104F1000001484BF002001F0004170BD0808A0F516
:104F200000114FEA3101704753EA010C17D41CF508
:104F3000801F58BFBCF5801F00F106808B4218BF50
:104F4000704708BF8242704707D713F5801F58BFCC
:104F500011F5801F19D48B4270479B4270471CF596
:104F6000801F08D5BCF5801FF7D5994218BF704740
:104F700008BF904270474FF4001C1CEB430F38BF32
:104F80001CEB410F01D2994270470FB40CBC03BC1B
:104F9000FFF7C1BE91EA030F10B581F000413FF564
:104FA00065AC83F0004300F0EFB800002DE9F0415C
:104FB00001F5801CBCF5001FC0F2C3804FEA115CF4
:104FC00021EA0C510CF1FD0C41F480115FEA5C0CFC
:104FD0000CF5C07C01D3400049413DA4890241EA5F
:104FE000905187028E0E0A0CA45D04FB04F602FBAE
:104FF00006F6C6F14046A4FB0662F60D46EA4226D6
:1050000006FB06F4A4FB01235242C3F1404338BF20
:105010005B1EA6FB02420024E6FB0324D20B42EAFD
:105020004446A6FB0623A1FB02E2A3FB07E4A41867
:105030004FF0000252F10002E3FB01426442C2F170
:10504000404E38BFAEF1010EA6FB04234FF0000224
:10505000E6FB0E32A2FB03464FF00004B61954F1F2
:105060000004E2FB0264A1FB06E6A4FB07E816EBE2
:1050700008064FF0000858F10008E4FB016876428A
:10508000C8F1405838BFA8F10108A2FB06E4A3FB11
:1050900008E52D194FF0000454F10004E2FB085418
:1050A000A1FB05E6A7FB04E818EB06084FF0000695
:1050B00056F10006E1FB048618F1200556F10006C2
:1050C000A809A8F11B08B10908F03F08B8F10A0FB8
:1050D00040EA86601CD901EB0C51BDE8F08100BFAD
:1050E000FCF5EEE8E2DDD8D3CFCBC7C3C0BDB9B67F
:1050F000B4B1AEACA9A7A5A3A19F9D9B9A98969584
:105100009392908F8D8C8B8988878685848382810A
:10511000A0FB006800FB01F208EB4208B8EB87280F
:1051200007D5341858EB0104D5D5401C51F10001C6
:10513000D1E7341A78EB0104CDD4401E71F100019F
:10514000C9E75FEA4C0C5FEA9C5C0DD105D34FF0D8
:10515000000001F00041BDE8F081BDE8F04170B50C
:10516000FFF78EFE6DDBFFBEBDE8F0414FF00000A3
:10517000004970470000F87F10B591EA030F48BF5F
:1051800083F000433FF572AB841A71EB030C07D236
:1051900012198CF0004C43EB0C03001B61EB0C016B
:1051A000DFF8A4E14FEA1154A4EB135C1EEA430FAD
:1051B00018BF9EEA445F00F0B08023EA6E035242BB
:1051C00021EA0451C3EB6E0338BF5B1EDCF1200EF5
:1051D00025D322FA0CFE10EB0E0043FA0CFE41EB35
:1051E0000E01CCF1200E03FA0EFE10EB0E0051F171
:1051F0000001CCF1200E29D412FA0EF201EB045179
:10520000BDE8104058BF7047401C1CBFB2F1004FB2
:10521000704700280CBF491C20F00100704712EBBA
:10522000020E43EB030218BF4FF0010E4EEA42029A
:10523000ACF1200CDCF11E0E54D943FA0CFE10EB3D
:105240000E0051F1FF31CCF11E0ED5D50EF1010E3D
:1052500012FA0EFE404141EB010101EB445C5FEAB2
:105260005C5C10D910EBDE7001EB045138BFBEF16D
:10527000004FBDE8104018BF704700280CBF491C04
:1052800020F00100704730D24FEAD42C11F5001104
:1052900024F400641BD0B1FA81F20B3AA41AA41EC4
:1052A000D2F12003914030FA03F31943904001EB0F
:1052B000CC71002C01EB0451BDE81040A8BF704731
:1052C00001F1C0414FF0000001F000417047B0FA19
:1052D00080F310FA03F100D110BDE41A173C480521
:1052E000C90AE4E701EB045110BD491001EB045178
:1052F000BDE810404FEA300002E04FF00001704777
:105300004A0008BF0042F8D0B2F5001F28BF70471E
:1053100001F000414FF0000070479EEA445F07D063
:1053200011EA5E0FBDE8104004BF00210020704765
:10533000BDE8104070B5FFF7A3FD00BF40DFF63EAB
:1053400083F00041104670470000E0FF43004FEA41
:10535000D30C4FEA3C0C43401FBF40070CF1605197
:1053600013F0FE4F70471CF0006F03D100200CF0CB
:10537000004170470CF0004343EA507010B540EA1A
:10538000CC0000F00CFA00BF000000924FEA0001D0
:10539000FFF7C4BD4FF000414FF00000A1F5002120
:1053A0007047000090EA010F48BF81F0004100F112
:1053B0005282421A3CBF801A89184FEAD0524FF0ED
:1053C0007F4C1CEA410FA2EBD15318BF9CEA026F3D
:1053D00000F03B804FF0004C4CEA00204CEA0121E9
:1053E00021FA03FC10EB0C0C1ED202F1FF325FEA33
:1053F0001C2040EBC25038BF70471CF07F0F4FEAB3
:10540000400C18BFBCF17F4F38BF7047C3F1200379
:10541000994008BF20F00100BCF17F4F38BF7047B2
:10542000A0F1C04000F001BA4FEA3C00000A40EB96
:10543000C25028BF1CF0FF0F4FEA400CE6D018BF47
:10544000BCF17F4F38BF7047EAE79CEA026F05D096
:1054500010EA5C0F08BF00F00040704710B500F084
:105460009EF900BF64FBBE3E401058BFC0F14040F3
:10547000491058BFC1F140418142EFF300807047AD
:105480004FF47F0C1CEAD0121EBF1CEAD11392EA23
:105490000C0F93EA0C0F00F0858090EA010F48BFD3
:1054A00042F4807240F4000C41F400002CF07F4183
:1054B00020F07F4000B58142A2EB03020FF2081CEE
:1054C000ACEB504EC0F100009EF800E04FEA4E0EEB
:1054D00000FB0EFC38BF49004FEA2C1C02F5FA0213
:1054E0000CFB0EF34FEACE1E4FEA112C4FEAC121FE
:1054F0000EEB635E42EB22420EFB0CFC4FEA1C53A8
:1055000000FB03114FEA112C4FEA01310EFB0CFC9A
:105510004FEADC4C00FB0C11C14228BF09184CEBD0
:1055200003335DF804EB10EB410143EBC250B2F5DD
:105530007C0F38BF704729D512F0F00F1CBF00F167
:10554000C04000F0004070470081828384858687D8
:1055500088898B8C8D8E8F919293959697999A9C32
:105560009D9FA0A2A3A5A7A8AAACAEB0B2B3B5B7A1
:10557000B9BCBEC0C2C5C7C9CCCED1D4D7D9DCDF77
:10558000E2E6E9ECF0F3F7FAFE0000004FEA400C27
:105590000CF1807CBCF17E4F28BF7047B0F1C04059
:1055A00000F043B990EA010F0CEAD11348BF42F46E
:1055B0008072624538BF634507D213F47F0F16D05F
:1055C00080EA010000F00040704710B500F0E7F8F5
:1055D000097EFC3E00F005B880EA010000F00040C2
:1055E000704780EA010000F0004000F01EB912F49C
:1055F0007F0F04BF0248704780EA010000F015B930
:105600000000C07F10F0004148BF4042B0FA80F374
:1056100010FA03F2C3F19D030BD051EAC35101EB21
:105620001220530638BF704700F1010008BF20F078
:105630000100704750EA010C00F113801CF5000FC7
:1056400058BFBCF5000F01D48842704707D710F54A
:10565000000F58BF11F5000F15D4884270478942DA
:1056600070471CF5000F04D5BCF5000FF7D581423B
:1056700070474FF0807C1CEB400F38BF1CEB410F94
:1056800001D28142704710B500F089F89224490098
:105690004FF000504FF08051FFF7E6BE4FF47F0C03
:1056A0001CEAD0121EBF1CEAD11392EA0C0F93EA37
:1056B0000C0F00F0478090EA010F48BF42F480725F
:1056C0004FF0004C4CEA00204CEA012102EB0302AF
:1056D000A0FB0113A2F50002002918BF43F001034B
:1056E0005B0028BF4FEA330342EB22425FEA132CF0
:1056F0004CEBC2502EBFBCEB436FB2F57C0F704732
:105700004FEA036CBCF1004F08BF20F00100B2F576
:105710007C0F38BF70470BD582F0FF0212F5803F37
:10572000C8BF704700F1C040D8BF00F000407047CC
:1057300000F5000C5FEA4C0C48BF7047B0F1C04068
:1057400000F073B890EA010F0CEAD11348BF42F49D
:105750008072624538BF634504D280EA010000F0E0
:105760000040704710B500F01AF800BF8900013EF4
:1057700000F007B800F009B85FEA410C5FEA1C6C62
:1057800008D080EA010000F050B85FEA400C5FEA00
:105790001C6CF6D14FF00040A0F5800070470EF170
:1057A000020E2EF0030E5EF8044B244204D44FEA9E
:1057B0004102B2F17F4F11D84FEA4003B3F17F4F5E
:1057C0000CD80ED14FEAD07CB2F17F4F0CEB4C0CD1
:1057D0000CF1020C08BF4CEBD17C04E04FF0080C3C
:1057E00001E04FEAD17C0CEB4C0324FA03F404F003
:1057F0000704B4F1040C06D20EEB840CBDE8104093
:105800004CF0010C6047DFE80CF0070802024FF093
:105810000040A0F5800010BD0846420018BFD2F13C
:10582000807288BF00F0004010BDFF2141EAD050D7
:10583000C005704780F0004090EA010F7FF5B9ADD8
:1058400081F0004100F007B890EA010F48BF81F0F5
:1058500000413FF5AEAD421A04D882F00042A0EB01
:10586000020011444FEAD0524FF07F4C1CEA410F26
:10587000A2EBD15318BF9CEA026F4AD04FF0004C04
:105880004CEA00204CEA012121FA03FCB0EB0C0C9D
:105890000FD412F0FE0F36D05FEA4C001DD5001277
:1058A00040EBC25038BF70471CF03F0F18BF704725
:1058B0000BE0A2F101025FEA1C2040EBC25038BFAE
:1058C00070471CF07F0F18BF7047C3F12003994049
:1058D00014BF401E20F00100704780084FEA1223D9
:1058E00008BF7047B0FA80FCA2EB0C02CCF1280C88
:1058F00060FA0CF093EA122F04BF00EBC25070471D
:105900004FEAC3707047130A5FEADC1008BF7047A4
:10591000F6E79CEA026F04D010EA5C0F08BF002093
:10592000704710B5FFF73BFF40DFF63E81F00040C7
:105930007047FDF708BB0CF00F03092B08BF0820C8
:1059400000F059800A2B0BD0082B18BF704708BFF6
:105950001CF0400F0AD04FF000004FF000017047DC
:105960001CF0400F18BF4FF0004070471CF0100FA4
:1059700008D020F0704300F07F4242EAD3014FEAA2
:105980004370704700F0604021F07F4242EA00021D
:1059900001F07F4040EA727070474FF0FF0C4CF40A
:1059A000E06C1CEA11531CBF9CEA030C9445C2BF77
:1059B000DA4201EB02517047002B0DD0BCF1000F11
:1059C0000FD0002A01F00041A4BF41F0E04141F0B6
:1059D0007F614FF00000704701F000414FF0000080
:1059E000704750EA01334FF09B0C18BF4CF0806CAD
:1059F0007EF4DCAF70471CF4801F11D01CF4E02F44
:105A000003D06FEACC31490070474FF04050EFF3BC
:105A1000008222F0704242EA000282F3008870475E
:105A20004FF0000070470000000000000000F03F51
:105A3000000000000000F83F00000000000000002F
:105A40000000004003B8E23F00000000000000003A
:105A500006D0CF43EBFD4C3E033333333333E33FC8
:105A6000FFAB6FDBB66DDB3F4D268F515555D53FF4
:105A700001411DA96074D13F65DBC9934A86CD3FC2
:105A8000EF4E454A287ECA3F3E5555555555C53FB0
:105A900093BDBE166CC166BF2CDE25AF6A56113FA2
:105AA000F16BD2C541BDBBBED0A4BE726937663EA4
:105AB000000000000000000002400000000000A004
:105AC0000000000005400000000000C800000000C9
:105AD0000C4000000000409C000000001940000045
